{
  "contractName": "FlightSuretyData",
  "abi": [
    {
      "inputs": [
        {
          "internalType": "address",
          "name": "airline",
          "type": "address"
        }
      ],
      "payable": true,
      "stateMutability": "payable",
      "type": "constructor"
    },
    {
      "anonymous": false,
      "inputs": [
        {
          "indexed": false,
          "internalType": "address",
          "name": "_contractId",
          "type": "address"
        }
      ],
      "name": "ContractAuthorized",
      "type": "event"
    },
    {
      "anonymous": false,
      "inputs": [
        {
          "indexed": false,
          "internalType": "address",
          "name": "_contractId",
          "type": "address"
        }
      ],
      "name": "ContractDeauthorized",
      "type": "event"
    },
    {
      "anonymous": false,
      "inputs": [
        {
          "indexed": false,
          "internalType": "bool",
          "name": "_state",
          "type": "bool"
        }
      ],
      "name": "OperationalStatusChanged",
      "type": "event"
    },
    {
      "payable": true,
      "stateMutability": "payable",
      "type": "fallback"
    },
    {
      "constant": true,
      "inputs": [],
      "name": "isOperational",
      "outputs": [
        {
          "internalType": "bool",
          "name": "",
          "type": "bool"
        }
      ],
      "payable": false,
      "stateMutability": "view",
      "type": "function"
    },
    {
      "constant": true,
      "inputs": [],
      "name": "getContractOwner",
      "outputs": [
        {
          "internalType": "address",
          "name": "",
          "type": "address"
        }
      ],
      "payable": false,
      "stateMutability": "view",
      "type": "function"
    },
    {
      "constant": true,
      "inputs": [
        {
          "internalType": "bytes32",
          "name": "key",
          "type": "bytes32"
        }
      ],
      "name": "isFlightRegistered",
      "outputs": [
        {
          "internalType": "bool",
          "name": "",
          "type": "bool"
        }
      ],
      "payable": false,
      "stateMutability": "view",
      "type": "function"
    },
    {
      "constant": false,
      "inputs": [
        {
          "internalType": "bool",
          "name": "mode",
          "type": "bool"
        }
      ],
      "name": "setOperatingStatus",
      "outputs": [],
      "payable": false,
      "stateMutability": "nonpayable",
      "type": "function"
    },
    {
      "constant": false,
      "inputs": [
        {
          "internalType": "address",
          "name": "contractAddress",
          "type": "address"
        }
      ],
      "name": "authorizeCaller",
      "outputs": [],
      "payable": false,
      "stateMutability": "nonpayable",
      "type": "function"
    },
    {
      "constant": false,
      "inputs": [
        {
          "internalType": "address",
          "name": "contractAddress",
          "type": "address"
        }
      ],
      "name": "deauthorizeCaller",
      "outputs": [],
      "payable": false,
      "stateMutability": "nonpayable",
      "type": "function"
    },
    {
      "constant": true,
      "inputs": [
        {
          "internalType": "address",
          "name": "_address",
          "type": "address"
        }
      ],
      "name": "isAirline",
      "outputs": [
        {
          "internalType": "bool",
          "name": "",
          "type": "bool"
        }
      ],
      "payable": false,
      "stateMutability": "view",
      "type": "function"
    },
    {
      "constant": true,
      "inputs": [
        {
          "internalType": "address",
          "name": "_address",
          "type": "address"
        },
        {
          "internalType": "address",
          "name": "_registeredAirline",
          "type": "address"
        }
      ],
      "name": "hasAirlineAlreadyVoted",
      "outputs": [
        {
          "internalType": "bool",
          "name": "",
          "type": "bool"
        }
      ],
      "payable": false,
      "stateMutability": "view",
      "type": "function"
    },
    {
      "constant": false,
      "inputs": [
        {
          "internalType": "address",
          "name": "_address",
          "type": "address"
        },
        {
          "internalType": "address",
          "name": "_registeredAirline",
          "type": "address"
        },
        {
          "internalType": "bool",
          "name": "_isRegistered",
          "type": "bool"
        }
      ],
      "name": "registerAirline",
      "outputs": [],
      "payable": false,
      "stateMutability": "nonpayable",
      "type": "function"
    },
    {
      "constant": true,
      "inputs": [
        {
          "internalType": "address",
          "name": "_airline",
          "type": "address"
        }
      ],
      "name": "isAirlineRegistered",
      "outputs": [
        {
          "internalType": "bool",
          "name": "success",
          "type": "bool"
        }
      ],
      "payable": false,
      "stateMutability": "view",
      "type": "function"
    },
    {
      "constant": false,
      "inputs": [
        {
          "internalType": "address",
          "name": "_address",
          "type": "address"
        }
      ],
      "name": "unregisterAirline",
      "outputs": [],
      "payable": false,
      "stateMutability": "nonpayable",
      "type": "function"
    },
    {
      "constant": true,
      "inputs": [],
      "name": "getNumberOfRegisteredAirlines",
      "outputs": [
        {
          "internalType": "uint256",
          "name": "_count",
          "type": "uint256"
        }
      ],
      "payable": false,
      "stateMutability": "view",
      "type": "function"
    },
    {
      "constant": true,
      "inputs": [],
      "name": "getNumberOfFundedAirlines",
      "outputs": [
        {
          "internalType": "uint256",
          "name": "_count",
          "type": "uint256"
        }
      ],
      "payable": false,
      "stateMutability": "view",
      "type": "function"
    },
    {
      "constant": true,
      "inputs": [
        {
          "internalType": "address",
          "name": "_address",
          "type": "address"
        }
      ],
      "name": "getNumberOfVotesForAirline",
      "outputs": [
        {
          "internalType": "uint256",
          "name": "",
          "type": "uint256"
        }
      ],
      "payable": false,
      "stateMutability": "view",
      "type": "function"
    },
    {
      "constant": true,
      "inputs": [],
      "name": "getContractBalance",
      "outputs": [
        {
          "internalType": "uint256",
          "name": "",
          "type": "uint256"
        }
      ],
      "payable": false,
      "stateMutability": "view",
      "type": "function"
    },
    {
      "constant": true,
      "inputs": [],
      "name": "getInsuranceBalance",
      "outputs": [
        {
          "internalType": "uint256",
          "name": "",
          "type": "uint256"
        }
      ],
      "payable": false,
      "stateMutability": "view",
      "type": "function"
    },
    {
      "constant": false,
      "inputs": [
        {
          "internalType": "bytes32",
          "name": "key",
          "type": "bytes32"
        },
        {
          "internalType": "address",
          "name": "airline",
          "type": "address"
        },
        {
          "internalType": "uint256",
          "name": "flightDateTime",
          "type": "uint256"
        },
        {
          "internalType": "string",
          "name": "flightName",
          "type": "string"
        },
        {
          "internalType": "uint8",
          "name": "statusCode",
          "type": "uint8"
        }
      ],
      "name": "registerFlight",
      "outputs": [],
      "payable": false,
      "stateMutability": "nonpayable",
      "type": "function"
    },
    {
      "constant": true,
      "inputs": [
        {
          "internalType": "bytes32",
          "name": "key",
          "type": "bytes32"
        }
      ],
      "name": "getFlightData",
      "outputs": [
        {
          "internalType": "string",
          "name": "flightName",
          "type": "string"
        },
        {
          "internalType": "uint256",
          "name": "flightDateTime",
          "type": "uint256"
        },
        {
          "internalType": "address",
          "name": "airline",
          "type": "address"
        },
        {
          "internalType": "uint8",
          "name": "status",
          "type": "uint8"
        }
      ],
      "payable": false,
      "stateMutability": "view",
      "type": "function"
    },
    {
      "constant": true,
      "inputs": [],
      "name": "getCurrentFlights",
      "outputs": [
        {
          "internalType": "bytes32[]",
          "name": "",
          "type": "bytes32[]"
        }
      ],
      "payable": false,
      "stateMutability": "view",
      "type": "function"
    },
    {
      "constant": false,
      "inputs": [
        {
          "internalType": "bytes32",
          "name": "key",
          "type": "bytes32"
        },
        {
          "internalType": "uint8",
          "name": "status",
          "type": "uint8"
        }
      ],
      "name": "setFlightStatus",
      "outputs": [],
      "payable": false,
      "stateMutability": "nonpayable",
      "type": "function"
    },
    {
      "constant": true,
      "inputs": [
        {
          "internalType": "address",
          "name": "_airline",
          "type": "address"
        }
      ],
      "name": "isAirlineFunded",
      "outputs": [
        {
          "internalType": "bool",
          "name": "success",
          "type": "bool"
        }
      ],
      "payable": false,
      "stateMutability": "view",
      "type": "function"
    },
    {
      "constant": false,
      "inputs": [
        {
          "internalType": "address",
          "name": "_address",
          "type": "address"
        },
        {
          "internalType": "uint256",
          "name": "_fund",
          "type": "uint256"
        },
        {
          "internalType": "uint256",
          "name": "FUNDING_AMOUNT_REQUIRED",
          "type": "uint256"
        }
      ],
      "name": "fund",
      "outputs": [],
      "payable": true,
      "stateMutability": "payable",
      "type": "function"
    },
    {
      "constant": false,
      "inputs": [
        {
          "internalType": "address",
          "name": "passenger",
          "type": "address"
        },
        {
          "internalType": "uint256",
          "name": "insuranceAmount",
          "type": "uint256"
        },
        {
          "internalType": "bytes32",
          "name": "flightKey",
          "type": "bytes32"
        }
      ],
      "name": "purchaseInsurance",
      "outputs": [],
      "payable": true,
      "stateMutability": "payable",
      "type": "function"
    },
    {
      "constant": false,
      "inputs": [
        {
          "internalType": "uint256",
          "name": "value",
          "type": "uint256"
        }
      ],
      "name": "processPayment",
      "outputs": [],
      "payable": true,
      "stateMutability": "payable",
      "type": "function"
    },
    {
      "constant": false,
      "inputs": [
        {
          "internalType": "bytes32",
          "name": "flightKey",
          "type": "bytes32"
        },
        {
          "internalType": "bool",
          "name": "wasLateAirline",
          "type": "bool"
        }
      ],
      "name": "processFlightStatus",
      "outputs": [],
      "payable": false,
      "stateMutability": "nonpayable",
      "type": "function"
    },
    {
      "constant": false,
      "inputs": [
        {
          "internalType": "address payable",
          "name": "payee",
          "type": "address"
        }
      ],
      "name": "payoutFunds",
      "outputs": [],
      "payable": true,
      "stateMutability": "payable",
      "type": "function"
    }
  ],
  "bytecode": "0x60806040526001600060146101000a81548160ff021916908315150217905550600060035560006004556000600855600060095560405162003e6338038062003e63833981810160405260208110156200005857600080fd5b8101908080519060200190929190505050336000806101000a81548173ffffffffffffffffffffffffffffffffffffffff021916908373ffffffffffffffffffffffffffffffffffffffff160217905550620000c534600854620000e660201b62000ad81790919060201c565b600881905550620000df813360016200010160201b60201c565b5062000315565b6000818301905082811015620000f857fe5b80905092915050565b6001600260008573ffffffffffffffffffffffffffffffffffffffff1673ffffffffffffffffffffffffffffffffffffffff16815260200190815260200160002060030160008473ffffffffffffffffffffffffffffffffffffffff1673ffffffffffffffffffffffffffffffffffffffff16815260200190815260200160002060006101000a81548160ff02191690831515021790555080600260008573ffffffffffffffffffffffffffffffffffffffff1673ffffffffffffffffffffffffffffffffffffffff16815260200190815260200160002060000160006101000a81548160ff021916908315150217905550600260008473ffffffffffffffffffffffffffffffffffffffff1673ffffffffffffffffffffffffffffffffffffffff16815260200190815260200160002060000160009054906101000a900460ff16156200026d57620002666001600354620000e660201b62000ad81790919060201c565b6003819055505b620002ca6001600260008673ffffffffffffffffffffffffffffffffffffffff1673ffffffffffffffffffffffffffffffffffffffff16815260200190815260200160002060020154620000e660201b62000ad81790919060201c565b600260008573ffffffffffffffffffffffffffffffffffffffff1673ffffffffffffffffffffffffffffffffffffffff16815260200190815260200160002060020181905550505050565b613b3e80620003256000396000f3fe6080604052600436106101815760003560e01c806365a56a64116100d157806397831c151161008a578063de7e864d11610064578063de7e864d146108a3578063f53b6d651461099e578063fbde53c014610a07578063ff08871014610a4f57610181565b806397831c15146107dd578063cd905dff14610808578063db01ec6e1461083757610181565b806365a56a64146105995780636873c21d146105dd5780636f9fb98a1461062e578063842fe6db14610659578063884ea3ac146107205780638c292dc41461078557610181565b80632b821bd91161013e5780633a2f8485116101185780633a2f8485146104445780633e15a30714610472578063442890d5146104ef57806358ac36a31461054657610181565b80632b821bd91461039d5780632c388d5d146103c85780633976d5a51461041957610181565b8063010c5c971461019e57806309c267ce146102075780630af6ce851461024e5780630e248a11146102a6578063110466ed1461030f578063183c164e1461034c575b61019634600854610ad890919063ffffffff16565b600881905550005b3480156101aa57600080fd5b506101ed600480360360208110156101c157600080fd5b81019080803573ffffffffffffffffffffffffffffffffffffffff169060200190929190505050610af2565b604051808215151515815260200191505060405180910390f35b34801561021357600080fd5b5061024c6004803603604081101561022a57600080fd5b8101908080359060200190929190803515159060200190929190505050610baf565b005b6102a46004803603606081101561026457600080fd5b81019080803573ffffffffffffffffffffffffffffffffffffffff1690602001909291908035906020019092919080359060200190929190505050611366565b005b3480156102b257600080fd5b506102f5600480360360208110156102c957600080fd5b81019080803573ffffffffffffffffffffffffffffffffffffffff1690602001909291905050506115a2565b604051808215151515815260200191505060405180910390f35b34801561031b57600080fd5b5061034a6004803603602081101561033257600080fd5b810190808035151590602001909291905050506115fb565b005b34801561035857600080fd5b5061039b6004803603602081101561036f57600080fd5b81019080803573ffffffffffffffffffffffffffffffffffffffff169060200190929190505050611764565b005b3480156103a957600080fd5b506103b2611846565b6040518082815260200191505060405180910390f35b3480156103d457600080fd5b50610417600480360360208110156103eb57600080fd5b81019080803573ffffffffffffffffffffffffffffffffffffffff1690602001909291905050506118b4565b005b34801561042557600080fd5b5061042e611abf565b6040518082815260200191505060405180910390f35b6104706004803603602081101561045a57600080fd5b8101908080359060200190929190505050611b2d565b005b34801561047e57600080fd5b506104ed6004803603606081101561049557600080fd5b81019080803573ffffffffffffffffffffffffffffffffffffffff169060200190929190803573ffffffffffffffffffffffffffffffffffffffff169060200190929190803515159060200190929190505050611cc6565b005b3480156104fb57600080fd5b50610504611e51565b604051808273ffffffffffffffffffffffffffffffffffffffff1673ffffffffffffffffffffffffffffffffffffffff16815260200191505060405180910390f35b34801561055257600080fd5b5061057f6004803603602081101561056957600080fd5b8101908080359060200190929190505050611e7a565b604051808215151515815260200191505060405180910390f35b6105db600480360360208110156105af57600080fd5b81019080803573ffffffffffffffffffffffffffffffffffffffff169060200190929190505050611ee9565b005b3480156105e957600080fd5b5061062c6004803603602081101561060057600080fd5b81019080803573ffffffffffffffffffffffffffffffffffffffff1690602001909291905050506121f6565b005b34801561063a57600080fd5b50610643612416565b6040518082815260200191505060405180910390f35b34801561066557600080fd5b5061071e600480360360a081101561067c57600080fd5b8101908080359060200190929190803573ffffffffffffffffffffffffffffffffffffffff16906020019092919080359060200190929190803590602001906401000000008111156106cd57600080fd5b8201836020820111156106df57600080fd5b8035906020019184600183028401116401000000008311171561070157600080fd5b9091929391929390803560ff169060200190929190505050612484565b005b34801561072c57600080fd5b5061076f6004803603602081101561074357600080fd5b81019080803573ffffffffffffffffffffffffffffffffffffffff1690602001909291905050506126f8565b6040518082815260200191505060405180910390f35b6107db6004803603606081101561079b57600080fd5b81019080803573ffffffffffffffffffffffffffffffffffffffff16906020019092919080359060200190929190803590602001909291905050506127a8565b005b3480156107e957600080fd5b506107f2612beb565b6040518082815260200191505060405180910390f35b34801561081457600080fd5b5061081d612c59565b604051808215151515815260200191505060405180910390f35b34801561084357600080fd5b5061084c612c6f565b6040518080602001828103825283818151815260200191508051906020019060200280838360005b8381101561088f578082015181840152602081019050610874565b505050509050019250505060405180910390f35b3480156108af57600080fd5b506108dc600480360360208110156108c657600080fd5b8101908080359060200190929190505050612e42565b60405180806020018581526020018473ffffffffffffffffffffffffffffffffffffffff1673ffffffffffffffffffffffffffffffffffffffff1681526020018360ff1660ff168152602001828103825286818151815260200191508051906020019080838360005b83811015610960578082015181840152602081019050610945565b50505050905090810190601f16801561098d5780820380516001836020036101000a031916815260200191505b509550505050505060405180910390f35b3480156109aa57600080fd5b506109ed600480360360208110156109c157600080fd5b81019080803573ffffffffffffffffffffffffffffffffffffffff169060200190929190505050613166565b604051808215151515815260200191505060405180910390f35b348015610a1357600080fd5b50610a4d60048036036040811015610a2a57600080fd5b8101908080359060200190929190803560ff169060200190929190505050613223565b005b348015610a5b57600080fd5b50610abe60048036036040811015610a7257600080fd5b81019080803573ffffffffffffffffffffffffffffffffffffffff169060200190929190803573ffffffffffffffffffffffffffffffffffffffff169060200190929190505050613470565b604051808215151515815260200191505060405180910390f35b6000818301905082811015610ae957fe5b80905092915050565b60008060149054906101000a900460ff16610b58576040517f08c379a0000000000000000000000000000000000000000000000000000000008152600401808060200182810382526025815260200180613ae56025913960400191505060405180910390fd5b600260008373ffffffffffffffffffffffffffffffffffffffff1673ffffffffffffffffffffffffffffffffffffffff16815260200190815260200160002060000160009054906101000a900460ff169050919050565b600060149054906101000a900460ff16610c14576040517f08c379a0000000000000000000000000000000000000000000000000000000008152600401808060200182810382526025815260200180613ae56025913960400191505060405180910390fd5b600160003373ffffffffffffffffffffffffffffffffffffffff1673ffffffffffffffffffffffffffffffffffffffff16815260200190815260200160002060009054906101000a900460ff1680610cb857506000809054906101000a900473ffffffffffffffffffffffffffffffffffffffff1673ffffffffffffffffffffffffffffffffffffffff163373ffffffffffffffffffffffffffffffffffffffff16145b610d2a576040517f08c379a00000000000000000000000000000000000000000000000000000000081526004018080602001828103825260188152602001807f43616c6c6572206973206e6f7420617574686f7269736564000000000000000081525060200191505060405180910390fd5b60008082156110d257600091505b60056000858152602001908152602001600020600401805490508210156110a95760076000600560008781526020019081526020016000206004018481548110610d7e57fe5b9060005260206000200160009054906101000a900473ffffffffffffffffffffffffffffffffffffffff1673ffffffffffffffffffffffffffffffffffffffff1673ffffffffffffffffffffffffffffffffffffffff168152602001908152602001600020600001600085815260200190815260200160002060009054906101000a900460ff161561109c5760076000600560008781526020019081526020016000206004018481548110610e2f57fe5b9060005260206000200160009054906101000a900473ffffffffffffffffffffffffffffffffffffffff1673ffffffffffffffffffffffffffffffffffffffff1673ffffffffffffffffffffffffffffffffffffffff1681526020019081526020016000206001016000858152602001908152602001600020549050600060076000600560008881526020019081526020016000206004018581548110610ed257fe5b9060005260206000200160009054906101000a900473ffffffffffffffffffffffffffffffffffffffff1673ffffffffffffffffffffffffffffffffffffffff1673ffffffffffffffffffffffffffffffffffffffff168152602001908152602001600020600101600086815260200190815260200160002081905550610fef8160076000600560008981526020019081526020016000206004018681548110610f7857fe5b9060005260206000200160009054906101000a900473ffffffffffffffffffffffffffffffffffffffff1673ffffffffffffffffffffffffffffffffffffffff1673ffffffffffffffffffffffffffffffffffffffff16815260200190815260200160002060020154610ad890919063ffffffff16565b6007600060056000888152602001908152602001600020600401858154811061101457fe5b9060005260206000200160009054906101000a900473ffffffffffffffffffffffffffffffffffffffff1673ffffffffffffffffffffffffffffffffffffffff1673ffffffffffffffffffffffffffffffffffffffff168152602001908152602001600020600201819055506110958160095461368190919063ffffffff16565b6009819055505b8180600101925050610d38565b600060056000868152602001908152602001600020600401816110cc919061395c565b50611357565b600091505b6005600085815260200190815260200160002060040180549050821015611332576007600060056000878152602001908152602001600020600401848154811061111d57fe5b9060005260206000200160009054906101000a900473ffffffffffffffffffffffffffffffffffffffff1673ffffffffffffffffffffffffffffffffffffffff1673ffffffffffffffffffffffffffffffffffffffff168152602001908152602001600020600001600085815260200190815260200160002060009054906101000a900460ff161561132557600760006005600087815260200190815260200160002060040184815481106111ce57fe5b9060005260206000200160009054906101000a900473ffffffffffffffffffffffffffffffffffffffff1673ffffffffffffffffffffffffffffffffffffffff1673ffffffffffffffffffffffffffffffffffffffff168152602001908152602001600020600101600085815260200190815260200160002054905060006007600060056000888152602001908152602001600020600401858154811061127157fe5b9060005260206000200160009054906101000a900473ffffffffffffffffffffffffffffffffffffffff1673ffffffffffffffffffffffffffffffffffffffff1673ffffffffffffffffffffffffffffffffffffffff16815260200190815260200160002060010160008681526020019081526020016000208190555061130381600854610ad890919063ffffffff16565b60088190555061131e8160095461368190919063ffffffff16565b6009819055505b81806001019250506110d7565b60006005600086815260200190815260200160002060040181611355919061395c565b505b61136084613698565b50505050565b600060149054906101000a900460ff166113cb576040517f08c379a0000000000000000000000000000000000000000000000000000000008152600401808060200182810382526025815260200180613ae56025913960400191505060405180910390fd5b61142082600260008673ffffffffffffffffffffffffffffffffffffffff1673ffffffffffffffffffffffffffffffffffffffff16815260200190815260200160002060010154610ad890919063ffffffff16565b600260008573ffffffffffffffffffffffffffffffffffffffff1673ffffffffffffffffffffffffffffffffffffffff16815260200190815260200160002060010181905550600260008473ffffffffffffffffffffffffffffffffffffffff1673ffffffffffffffffffffffffffffffffffffffff16815260200190815260200160002060000160019054906101000a900460ff16158015611505575080600260008573ffffffffffffffffffffffffffffffffffffffff1673ffffffffffffffffffffffffffffffffffffffff1681526020019081526020016000206001015410155b15611582576001600260008573ffffffffffffffffffffffffffffffffffffffff1673ffffffffffffffffffffffffffffffffffffffff16815260200190815260200160002060000160016101000a81548160ff02191690831515021790555061157b6001600454610ad890919063ffffffff16565b6004819055505b61159782600854610ad890919063ffffffff16565b600881905550505050565b6000600260008373ffffffffffffffffffffffffffffffffffffffff1673ffffffffffffffffffffffffffffffffffffffff16815260200190815260200160002060000160009054906101000a900460ff169050919050565b6000809054906101000a900473ffffffffffffffffffffffffffffffffffffffff1673ffffffffffffffffffffffffffffffffffffffff163373ffffffffffffffffffffffffffffffffffffffff16146116a0576040517f08c379a0000000000000000000000000000000000000000000000000000000008152600401808060200182810382526022815260200180613a7f6022913960400191505060405180910390fd5b600060149054906101000a900460ff161515811515141561170c576040517f08c379a0000000000000000000000000000000000000000000000000000000008152600401808060200182810382526023815260200180613ac26023913960400191505060405180910390fd5b80600060146101000a81548160ff0219169083151502179055507f896889b60cdc10f9b7ae3d3e485f3a919a7bb14a6a32645578f583abfa4c66d981604051808215151515815260200191505060405180910390a150565b600060149054906101000a900460ff166117c9576040517f08c379a0000000000000000000000000000000000000000000000000000000008152600401808060200182810382526025815260200180613ae56025913960400191505060405180910390fd5b600260008273ffffffffffffffffffffffffffffffffffffffff1673ffffffffffffffffffffffffffffffffffffffff168152602001908152602001600020600080820160006101000a81549060ff02191690556000820160016101000a81549060ff021916905560018201600090556002820160009055505050565b60008060149054906101000a900460ff166118ac576040517f08c379a0000000000000000000000000000000000000000000000000000000008152600401808060200182810382526025815260200180613ae56025913960400191505060405180910390fd5b600954905090565b6000809054906101000a900473ffffffffffffffffffffffffffffffffffffffff1673ffffffffffffffffffffffffffffffffffffffff163373ffffffffffffffffffffffffffffffffffffffff1614611959576040517f08c379a0000000000000000000000000000000000000000000000000000000008152600401808060200182810382526022815260200180613a7f6022913960400191505060405180910390fd5b60001515600160008373ffffffffffffffffffffffffffffffffffffffff1673ffffffffffffffffffffffffffffffffffffffff16815260200190815260200160002060009054906101000a900460ff16151514611a02576040517f08c379a0000000000000000000000000000000000000000000000000000000008152600401808060200182810382526021815260200180613aa16021913960400191505060405180910390fd5b60018060008373ffffffffffffffffffffffffffffffffffffffff1673ffffffffffffffffffffffffffffffffffffffff16815260200190815260200160002060006101000a81548160ff0219169083151502179055507f8983a1f3c3cb45c24c8226b5b805e3b6eb49686530b808534b2a920129eff65181604051808273ffffffffffffffffffffffffffffffffffffffff1673ffffffffffffffffffffffffffffffffffffffff16815260200191505060405180910390a150565b60008060149054906101000a900460ff16611b25576040517f08c379a0000000000000000000000000000000000000000000000000000000008152600401808060200182810382526025815260200180613ae56025913960400191505060405180910390fd5b600454905090565b600060149054906101000a900460ff16611b92576040517f08c379a0000000000000000000000000000000000000000000000000000000008152600401808060200182810382526025815260200180613ae56025913960400191505060405180910390fd5b600160003373ffffffffffffffffffffffffffffffffffffffff1673ffffffffffffffffffffffffffffffffffffffff16815260200190815260200160002060009054906101000a900460ff1680611c3657506000809054906101000a900473ffffffffffffffffffffffffffffffffffffffff1673ffffffffffffffffffffffffffffffffffffffff163373ffffffffffffffffffffffffffffffffffffffff16145b611ca8576040517f08c379a00000000000000000000000000000000000000000000000000000000081526004018080602001828103825260188152602001807f43616c6c6572206973206e6f7420617574686f7269736564000000000000000081525060200191505060405180910390fd5b611cbd81600854610ad890919063ffffffff16565b60088190555050565b600060149054906101000a900460ff16611d2b576040517f08c379a0000000000000000000000000000000000000000000000000000000008152600401808060200182810382526025815260200180613ae56025913960400191505060405180910390fd5b600160003373ffffffffffffffffffffffffffffffffffffffff1673ffffffffffffffffffffffffffffffffffffffff16815260200190815260200160002060009054906101000a900460ff1680611dcf57506000809054906101000a900473ffffffffffffffffffffffffffffffffffffffff1673ffffffffffffffffffffffffffffffffffffffff163373ffffffffffffffffffffffffffffffffffffffff16145b611e41576040517f08c379a00000000000000000000000000000000000000000000000000000000081526004018080602001828103825260188152602001807f43616c6c6572206973206e6f7420617574686f7269736564000000000000000081525060200191505060405180910390fd5b611e4c838383613743565b505050565b60008060009054906101000a900473ffffffffffffffffffffffffffffffffffffffff16905090565b60008073ffffffffffffffffffffffffffffffffffffffff166005600084815260200190815260200160002060020160009054906101000a900473ffffffffffffffffffffffffffffffffffffffff1673ffffffffffffffffffffffffffffffffffffffff1614159050919050565b600060149054906101000a900460ff16611f4e576040517f08c379a0000000000000000000000000000000000000000000000000000000008152600401808060200182810382526025815260200180613ae56025913960400191505060405180910390fd5b600160003373ffffffffffffffffffffffffffffffffffffffff1673ffffffffffffffffffffffffffffffffffffffff16815260200190815260200160002060009054906101000a900460ff1680611ff257506000809054906101000a900473ffffffffffffffffffffffffffffffffffffffff1673ffffffffffffffffffffffffffffffffffffffff163373ffffffffffffffffffffffffffffffffffffffff16145b612064576040517f08c379a00000000000000000000000000000000000000000000000000000000081526004018080602001828103825260188152602001807f43616c6c6572206973206e6f7420617574686f7269736564000000000000000081525060200191505060405180910390fd5b6000600760008373ffffffffffffffffffffffffffffffffffffffff1673ffffffffffffffffffffffffffffffffffffffff168152602001908152602001600020600201541161211c576040517f08c379a000000000000000000000000000000000000000000000000000000000815260040180806020018281038252601b8152602001807f4d75737420686176652066756e647320746f206765742070616964000000000081525060200191505060405180910390fd5b6000600760008373ffffffffffffffffffffffffffffffffffffffff1673ffffffffffffffffffffffffffffffffffffffff1681526020019081526020016000206002015490506000600760008473ffffffffffffffffffffffffffffffffffffffff1673ffffffffffffffffffffffffffffffffffffffff168152602001908152602001600020600201819055508173ffffffffffffffffffffffffffffffffffffffff166108fc829081150290604051600060405180830381858888f193505050501580156121f1573d6000803e3d6000fd5b505050565b6000809054906101000a900473ffffffffffffffffffffffffffffffffffffffff1673ffffffffffffffffffffffffffffffffffffffff163373ffffffffffffffffffffffffffffffffffffffff161461229b576040517f08c379a0000000000000000000000000000000000000000000000000000000008152600401808060200182810382526022815260200180613a7f6022913960400191505060405180910390fd5b60011515600160008373ffffffffffffffffffffffffffffffffffffffff1673ffffffffffffffffffffffffffffffffffffffff16815260200190815260200160002060009054906101000a900460ff16151514612361576040517f08c379a00000000000000000000000000000000000000000000000000000000081526004018080602001828103825260198152602001807f41646472657373206973206e6f7420726567697374657265640000000000000081525060200191505060405180910390fd5b600160008273ffffffffffffffffffffffffffffffffffffffff1673ffffffffffffffffffffffffffffffffffffffff16815260200190815260200160002060006101000a81549060ff02191690557f54142b7cb3ceaa9e564243ce4cc2303723c842a1144192de6b3c594f68b16a9a81604051808273ffffffffffffffffffffffffffffffffffffffff1673ffffffffffffffffffffffffffffffffffffffff16815260200191505060405180910390a150565b60008060149054906101000a900460ff1661247c576040517f08c379a0000000000000000000000000000000000000000000000000000000008152600401808060200182810382526025815260200180613ae56025913960400191505060405180910390fd5b600854905090565b600060149054906101000a900460ff166124e9576040517f08c379a0000000000000000000000000000000000000000000000000000000008152600401808060200182810382526025815260200180613ae56025913960400191505060405180910390fd5b600160003373ffffffffffffffffffffffffffffffffffffffff1673ffffffffffffffffffffffffffffffffffffffff16815260200190815260200160002060009054906101000a900460ff168061258d57506000809054906101000a900473ffffffffffffffffffffffffffffffffffffffff1673ffffffffffffffffffffffffffffffffffffffff163373ffffffffffffffffffffffffffffffffffffffff16145b6125ff576040517f08c379a00000000000000000000000000000000000000000000000000000000081526004018080602001828103825260188152602001807f43616c6c6572206973206e6f7420617574686f7269736564000000000000000081525060200191505060405180910390fd5b846005600088815260200190815260200160002060020160006101000a81548173ffffffffffffffffffffffffffffffffffffffff021916908373ffffffffffffffffffffffffffffffffffffffff1602179055508360056000888152602001908152602001600020600101819055508282600560008981526020019081526020016000206000019190612694929190613988565b50806005600088815260200190815260200160002060020160146101000a81548160ff021916908360ff1602179055506006869080600181540180825580915050906001820390600052602060002001600090919290919091505550505050505050565b60008060149054906101000a900460ff1661275e576040517f08c379a0000000000000000000000000000000000000000000000000000000008152600401808060200182810382526025815260200180613ae56025913960400191505060405180910390fd5b600260008373ffffffffffffffffffffffffffffffffffffffff1673ffffffffffffffffffffffffffffffffffffffff168152602001908152602001600020600201549050919050565b600060149054906101000a900460ff1661280d576040517f08c379a0000000000000000000000000000000000000000000000000000000008152600401808060200182810382526025815260200180613ae56025913960400191505060405180910390fd5b600160003373ffffffffffffffffffffffffffffffffffffffff1673ffffffffffffffffffffffffffffffffffffffff16815260200190815260200160002060009054906101000a900460ff16806128b157506000809054906101000a900473ffffffffffffffffffffffffffffffffffffffff1673ffffffffffffffffffffffffffffffffffffffff163373ffffffffffffffffffffffffffffffffffffffff16145b612923576040517f08c379a00000000000000000000000000000000000000000000000000000000081526004018080602001828103825260188152602001807f43616c6c6572206973206e6f7420617574686f7269736564000000000000000081525060200191505060405180910390fd5b600760008473ffffffffffffffffffffffffffffffffffffffff1673ffffffffffffffffffffffffffffffffffffffff168152602001908152602001600020600001600082815260200190815260200160002060009054906101000a900460ff16156129f7576040517f08c379a00000000000000000000000000000000000000000000000000000000081526004018080602001828103825260198152602001807f50617373656e67657220616c726561647920696e73757265640000000000000081525060200191505060405180910390fd5b6001600760008573ffffffffffffffffffffffffffffffffffffffff1673ffffffffffffffffffffffffffffffffffffffff168152602001908152602001600020600001600083815260200190815260200160002060006101000a81548160ff021916908315150217905550600560008281526020019081526020016000206004018390806001815401808255809150509060018203906000526020600020016000909192909190916101000a81548173ffffffffffffffffffffffffffffffffffffffff021916908373ffffffffffffffffffffffffffffffffffffffff1602179055505081612af260028461394890919063ffffffff16565b01600760008573ffffffffffffffffffffffffffffffffffffffff1673ffffffffffffffffffffffffffffffffffffffff168152602001908152602001600020600101600083815260200190815260200160002081905550612bb2600760008573ffffffffffffffffffffffffffffffffffffffff1673ffffffffffffffffffffffffffffffffffffffff168152602001908152602001600020600101600083815260200190815260200160002054600954610ad890919063ffffffff16565b600981905550612be0612bcf60028461394890919063ffffffff16565b60085461368190919063ffffffff16565b600881905550505050565b60008060149054906101000a900460ff16612c51576040517f08c379a0000000000000000000000000000000000000000000000000000000008152600401808060200182810382526025815260200180613ae56025913960400191505060405180910390fd5b600354905090565b60008060149054906101000a900460ff16905090565b6060600060149054906101000a900460ff16612cd6576040517f08c379a0000000000000000000000000000000000000000000000000000000008152600401808060200182810382526025815260200180613ae56025913960400191505060405180910390fd5b600160003373ffffffffffffffffffffffffffffffffffffffff1673ffffffffffffffffffffffffffffffffffffffff16815260200190815260200160002060009054906101000a900460ff1680612d7a57506000809054906101000a900473ffffffffffffffffffffffffffffffffffffffff1673ffffffffffffffffffffffffffffffffffffffff163373ffffffffffffffffffffffffffffffffffffffff16145b612dec576040517f08c379a00000000000000000000000000000000000000000000000000000000081526004018080602001828103825260188152602001807f43616c6c6572206973206e6f7420617574686f7269736564000000000000000081525060200191505060405180910390fd5b6006805480602002602001604051908101604052809291908181526020018280548015612e3857602002820191906000526020600020905b815481526020019060010190808311612e24575b5050505050905090565b606060008060008060149054906101000a900460ff16612ead576040517f08c379a0000000000000000000000000000000000000000000000000000000008152600401808060200182810382526025815260200180613ae56025913960400191505060405180910390fd5b600160003373ffffffffffffffffffffffffffffffffffffffff1673ffffffffffffffffffffffffffffffffffffffff16815260200190815260200160002060009054906101000a900460ff1680612f5157506000809054906101000a900473ffffffffffffffffffffffffffffffffffffffff1673ffffffffffffffffffffffffffffffffffffffff163373ffffffffffffffffffffffffffffffffffffffff16145b612fc3576040517f08c379a00000000000000000000000000000000000000000000000000000000081526004018080602001828103825260188152602001807f43616c6c6572206973206e6f7420617574686f7269736564000000000000000081525060200191505060405180910390fd5b600073ffffffffffffffffffffffffffffffffffffffff166005600087815260200190815260200160002060020160009054906101000a900473ffffffffffffffffffffffffffffffffffffffff1673ffffffffffffffffffffffffffffffffffffffff16141561303357600080fd5b6005600086815260200190815260200160002060000160056000878152602001908152602001600020600101546005600088815260200190815260200160002060020160009054906101000a900473ffffffffffffffffffffffffffffffffffffffff166005600089815260200190815260200160002060020160149054906101000a900460ff16838054600181600116156101000203166002900480601f0160208091040260200160405190810160405280929190818152602001828054600181600116156101000203166002900480156131505780601f1061312557610100808354040283529160200191613150565b820191906000526020600020905b81548152906001019060200180831161313357829003601f168201915b5050505050935093509350935093509193509193565b60008060149054906101000a900460ff166131cc576040517f08c379a0000000000000000000000000000000000000000000000000000000008152600401808060200182810382526025815260200180613ae56025913960400191505060405180910390fd5b600260008373ffffffffffffffffffffffffffffffffffffffff1673ffffffffffffffffffffffffffffffffffffffff16815260200190815260200160002060000160019054906101000a900460ff169050919050565b600060149054906101000a900460ff16613288576040517f08c379a0000000000000000000000000000000000000000000000000000000008152600401808060200182810382526025815260200180613ae56025913960400191505060405180910390fd5b600160003373ffffffffffffffffffffffffffffffffffffffff1673ffffffffffffffffffffffffffffffffffffffff16815260200190815260200160002060009054906101000a900460ff168061332c57506000809054906101000a900473ffffffffffffffffffffffffffffffffffffffff1673ffffffffffffffffffffffffffffffffffffffff163373ffffffffffffffffffffffffffffffffffffffff16145b61339e576040517f08c379a00000000000000000000000000000000000000000000000000000000081526004018080602001828103825260188152602001807f43616c6c6572206973206e6f7420617574686f7269736564000000000000000081525060200191505060405180910390fd5b6005600083815260200190815260200160002060020160149054906101000a900460ff1660ff168160ff16141561343d576040517f08c379a00000000000000000000000000000000000000000000000000000000081526004018080602001828103825260178152602001807f53746174757320636f646520616c72656164792073657400000000000000000081525060200191505060405180910390fd5b806005600084815260200190815260200160002060020160146101000a81548160ff021916908360ff1602179055505050565b60008060149054906101000a900460ff166134d6576040517f08c379a0000000000000000000000000000000000000000000000000000000008152600401808060200182810382526025815260200180613ae56025913960400191505060405180910390fd5b600160003373ffffffffffffffffffffffffffffffffffffffff1673ffffffffffffffffffffffffffffffffffffffff16815260200190815260200160002060009054906101000a900460ff168061357a57506000809054906101000a900473ffffffffffffffffffffffffffffffffffffffff1673ffffffffffffffffffffffffffffffffffffffff163373ffffffffffffffffffffffffffffffffffffffff16145b6135ec576040517f08c379a00000000000000000000000000000000000000000000000000000000081526004018080602001828103825260188152602001807f43616c6c6572206973206e6f7420617574686f7269736564000000000000000081525060200191505060405180910390fd5b600260008473ffffffffffffffffffffffffffffffffffffffff1673ffffffffffffffffffffffffffffffffffffffff16815260200190815260200160002060030160008373ffffffffffffffffffffffffffffffffffffffff1673ffffffffffffffffffffffffffffffffffffffff16815260200190815260200160002060009054906101000a900460ff16905092915050565b60008282111561368d57fe5b818303905092915050565b600080905060008090505b6001600680549050038210156137215782600683815481106136c157fe5b906000526020600020015414156136d757600190505b801561371457600660018301815481106136ed57fe5b90600052602060002001546006838154811061370557fe5b90600052602060002001819055505b81806001019250506136a3565b801561373e57600680548091906001900361373c9190613a08565b505b505050565b6001600260008573ffffffffffffffffffffffffffffffffffffffff1673ffffffffffffffffffffffffffffffffffffffff16815260200190815260200160002060030160008473ffffffffffffffffffffffffffffffffffffffff1673ffffffffffffffffffffffffffffffffffffffff16815260200190815260200160002060006101000a81548160ff02191690831515021790555080600260008573ffffffffffffffffffffffffffffffffffffffff1673ffffffffffffffffffffffffffffffffffffffff16815260200190815260200160002060000160006101000a81548160ff021916908315150217905550600260008473ffffffffffffffffffffffffffffffffffffffff1673ffffffffffffffffffffffffffffffffffffffff16815260200190815260200160002060000160009054906101000a900460ff16156138a7576138a06001600354610ad890919063ffffffff16565b6003819055505b6138fd6001600260008673ffffffffffffffffffffffffffffffffffffffff1673ffffffffffffffffffffffffffffffffffffffff16815260200190815260200160002060020154610ad890919063ffffffff16565b600260008573ffffffffffffffffffffffffffffffffffffffff1673ffffffffffffffffffffffffffffffffffffffff16815260200190815260200160002060020181905550505050565b600081838161395357fe5b04905092915050565b815481835581811115613983578183600052602060002091820191016139829190613a34565b5b505050565b828054600181600116156101000203166002900490600052602060002090601f016020900481019282601f106139c957803560ff19168380011785556139f7565b828001600101855582156139f7579182015b828111156139f65782358255916020019190600101906139db565b5b509050613a049190613a34565b5090565b815481835581811115613a2f57818360005260206000209182019101613a2e9190613a59565b5b505050565b613a5691905b80821115613a52576000816000905550600101613a3a565b5090565b90565b613a7b91905b80821115613a77576000816000905550600101613a5f565b5090565b9056fe446174613a2043616c6c6572206973206e6f7420636f6e7472616374206f776e6572416464726573732068617320616c7265616479206265207265676973746572656443616e2774207365742073616d65207374617465206d6f7265207468616e206f6e6365436f6e74726163742069732063757272656e746c79206e6f74206f7065726174696f6e616ca265627a7a7231582077c80c84f0f19c932dbb23eaa8e331d67052dce164520e797950564a36038ac164736f6c63430005110032",
  "source": "pragma solidity ^0.5.0;\n\nimport \"../node_modules/openzeppelin-solidity/contracts/math/SafeMath.sol\";\n\ncontract FlightSuretyData {\n    using SafeMath for uint256;\n\n    /********************************************************************************************/\n    /*                                       DATA VARIABLES                                     */\n    /********************************************************************************************/\n\n    address private contractOwner;                                      // Account used to deploy contract\n    bool private operational = true;          // Blocks all state changes throughout the contract if false\n    mapping(address => bool) private authorizedCallers;\n\n    struct Airline {\n        bool isRegistered;\n        bool isFunded;\n        uint256 funds;\n        uint256 numberOfVotesReceived;\n        mapping (address => bool) otherAirlineVotes; \n    }\n\n    mapping(address => Airline) private airlines;\n\n    uint256 private _numberOfRegisteredAirlines = 0;\n    uint256 private _numberOfFundedAirlines = 0;\n\n    // Flight struct\n    struct Flight {\n        string flightName;\n        uint256 flightDateTime;\n        address airline;\n        uint8 statusCode;\n        uint256 updatedTimestamp;\n        address[] insuredPassengers;\n    }\n\n    // string mapping to flight\n    mapping(bytes32 => Flight) private flights;\n    bytes32[] private currentFlights;\n\n    // passenger with multiply flights\n    struct Passenger {\n        mapping(bytes32 => bool) passengerOnFlight;\n        mapping(bytes32 => uint256) insuranceAmountForFlight;\n        uint256 balance;\n    }\n\n    mapping(address => Passenger) passengers;\n\n    // the contract holds balance of insurance\n    uint256 private _contractBalance = 0 ether;\n\n    // so we don't go in the hole\n    uint256 private _insuranceBalance = 0 ether;\n\n\n    /********************************************************************************************/\n    /*                                       EVENT DEFINITIONS                                  */\n    /********************************************************************************************/\n    event ContractDeauthorized(address _contractId);\n    event ContractAuthorized(address _contractId);\n    event OperationalStatusChanged(bool _state);\n\n    constructor(address airline) public payable {\n        contractOwner = msg.sender;\n        _contractBalance = _contractBalance.add(msg.value);\n        _registerAirline (airline, msg.sender, true);\n    }\n\n    /********************************************************************************************/\n    /*                                       FUNCTION MODIFIERS                                 */\n    /********************************************************************************************/\n    modifier requireIsOperational() {\n        require(operational, \"Contract is currently not operational\");\n        _;  // All modifiers require an \"_\" which indicates where the function body will be added\n    }\n\n    modifier requireContractOwner() {\n        require(msg.sender == contractOwner, \"Data: Caller is not contract owner\");\n        _;\n    }\n\n    modifier requireIsCallerAuthorized() {\n        require(authorizedCallers[msg.sender] || (msg.sender == contractOwner), \"Caller is not authorised\");\n        _;\n    }\n\n    /********************************************************************************************/\n    /*                                       UTILITY FUNCTIONS                                  */\n    /********************************************************************************************/\n    function isOperational() public view returns(bool) {\n        return operational;\n    }\n\n    function getContractOwner() public view returns (address) {\n        return contractOwner;\n    }\n\n    function isFlightRegistered(bytes32 key) external view returns(bool) {\n        return flights[key].airline != address(0);\n    }\n\n    /**\n    * @dev Sets contract operations on/off\n    *\n    * When operational mode is disabled, all write transactions except for this one will fail\n    */\n    function setOperatingStatus ( bool mode ) external requireContractOwner {\n        require(mode != operational, \"Can't set same state more than once\");\n        operational = mode;\n        emit OperationalStatusChanged(mode);\n    } \n\n    function authorizeCaller(address contractAddress) external requireContractOwner{\n        require(authorizedCallers[contractAddress] == false, \"Address has already be registered\");\n        authorizedCallers[contractAddress] = true;\n        emit ContractAuthorized(contractAddress);\n    }\n\n    function deauthorizeCaller(address contractAddress) external requireContractOwner {\n        require(authorizedCallers[contractAddress] == true, \"Address is not registered\");\n        delete authorizedCallers[contractAddress];\n        emit ContractDeauthorized(contractAddress);\n    }\n\n    /********************************************************************************************/\n    /*                                     SMART CONTRACT FUNCTIONS                             */\n    /********************************************************************************************/\n    function isAirline( address _address) external view returns(bool) {\n        return airlines[_address].isRegistered;\n    }\n\n    function hasAirlineAlreadyVoted(address _address, address _registeredAirline) external view requireIsOperational requireIsCallerAuthorized returns(bool) {\n        return airlines[_address].otherAirlineVotes[_registeredAirline];\n    }\n\n    function registerAirline(address _address, address _registeredAirline, bool _isRegistered) external requireIsOperational requireIsCallerAuthorized {\n       _registerAirline(_address, _registeredAirline, _isRegistered);\n    }\n\n    function _registerAirline(address _address, address _registeredAirline, bool _isRegistered) private {\n        airlines[_address].otherAirlineVotes[_registeredAirline] = true;\n        airlines[_address].isRegistered = _isRegistered;\n        if(airlines[_address].isRegistered) {\n            _numberOfRegisteredAirlines = _numberOfRegisteredAirlines.add(1);\n        }\n        airlines[_address].numberOfVotesReceived = airlines[_address].numberOfVotesReceived.add(1);\n    }\n\n    function isAirlineRegistered(address _airline) public view requireIsOperational returns (bool success) {\n        return airlines[_airline].isRegistered;\n    }\n\n    function unregisterAirline(address _address) external requireIsOperational  {\n        delete airlines[_address];\n    }\n\n    function getNumberOfRegisteredAirlines() external view requireIsOperational returns(uint256 _count) {\n        return _numberOfRegisteredAirlines;\n    }\n\n    function getNumberOfFundedAirlines() external view requireIsOperational returns(uint256 _count) {\n        return _numberOfFundedAirlines;\n    }\n\n    function getNumberOfVotesForAirline(address _address) external view requireIsOperational returns(uint256) {\n        return airlines[_address].numberOfVotesReceived;\n    }\n\n    function getContractBalance() external view requireIsOperational returns(uint256) {\n        return _contractBalance;\n    }\n\n    function getInsuranceBalance() external view requireIsOperational returns(uint256) {\n        return _insuranceBalance;\n    }\n\n    function registerFlight(bytes32 key, address airline, uint256 flightDateTime, string calldata flightName, uint8 statusCode) external requireIsOperational requireIsCallerAuthorized {\n        flights[key].airline = airline;\n        flights[key].flightDateTime = flightDateTime;\n        flights[key].flightName = flightName;\n        flights[key].statusCode = statusCode;\n        currentFlights.push(key);\n    }\n\n    function getFlightData(bytes32 key) external view requireIsOperational requireIsCallerAuthorized returns(string memory flightName, uint256 flightDateTime, address airline, uint8 status) {\n        require(flights[key].airline != address(0));\n        return (flights[key].flightName, flights[key].flightDateTime, flights[key].airline, flights[key].statusCode);\n    }\n\n    function getCurrentFlights() external view requireIsOperational requireIsCallerAuthorized returns (bytes32[] memory ) {\n        return currentFlights;\n    }\n\n    function setFlightStatus(bytes32 key, uint8 status) external requireIsOperational requireIsCallerAuthorized{\n        require(status != flights[key].statusCode, \"Status code already set\");\n        flights[key].statusCode = status;\n    }\n\n    function _removeFlightFromCurrentFlights(bytes32 key) private {\n        uint256 index = 0;\n        bool foundKey = false;\n\n        while(index < currentFlights.length - 1) {\n            if(currentFlights[index] == key) {\n                foundKey = true;\n            }\n            if(foundKey) {\n                currentFlights[index] = currentFlights[index + 1];\n            }\n            index++;\n        }\n        if(foundKey) {\n            currentFlights.length--;\n        }\n    }\n\n    function isAirlineFunded(address _airline) public view requireIsOperational returns (bool success) {\n        return airlines[_airline].isFunded;\n    }\n\n    function fund (address _address, uint256 _fund, uint256 FUNDING_AMOUNT_REQUIRED) public payable requireIsOperational {\n        airlines[_address].funds = airlines[_address].funds.add(_fund);\n        if(!airlines[_address].isFunded && airlines[_address].funds >= FUNDING_AMOUNT_REQUIRED) {\n            airlines[_address].isFunded = true;\n            _numberOfFundedAirlines = _numberOfFundedAirlines.add(1);\n        }\n        _contractBalance = _contractBalance.add(_fund);\n    }\n\n    function purchaseInsurance(address passenger, uint256 insuranceAmount, bytes32 flightKey) external payable requireIsOperational requireIsCallerAuthorized {\n        require(!passengers[passenger].passengerOnFlight[flightKey], \"Passenger already insured\");\n        passengers[passenger].passengerOnFlight[flightKey] = true;\n        flights[flightKey].insuredPassengers.push(passenger);\n        passengers[passenger].insuranceAmountForFlight[flightKey] = insuranceAmount.div(2) + insuranceAmount;\n        _insuranceBalance = _insuranceBalance.add(passengers[passenger].insuranceAmountForFlight[flightKey]);\n        _contractBalance = _contractBalance.sub(insuranceAmount.div(2));\n    }\n\n    function processPayment(uint256 value) external payable requireIsOperational requireIsCallerAuthorized {\n        _contractBalance = _contractBalance.add(value);\n    }\n\n    function() external payable {\n        _contractBalance = _contractBalance.add(msg.value);\n    }\n\n    function processFlightStatus(bytes32 flightKey, bool wasLateAirline) external requireIsOperational requireIsCallerAuthorized {\n        uint256 passenger;\n        uint256 payableAmount;\n        if(wasLateAirline) {\n            for(passenger = 0; passenger < flights[flightKey].insuredPassengers.length; passenger++) {\n                if(passengers[flights[flightKey].insuredPassengers[passenger]].passengerOnFlight[flightKey]) {\n                    payableAmount = passengers[flights[flightKey].insuredPassengers[passenger]].insuranceAmountForFlight[flightKey];\n                    passengers[flights[flightKey].insuredPassengers[passenger]].insuranceAmountForFlight[flightKey] = 0;\n                    passengers[flights[flightKey].insuredPassengers[passenger]].balance = passengers[flights[flightKey].insuredPassengers[passenger]].balance.add(payableAmount);\n                    _insuranceBalance = _insuranceBalance.sub(payableAmount);\n                }\n            }\n            flights[flightKey].insuredPassengers.length = 0;\n        } else {\n            for(passenger = 0; passenger < flights[flightKey].insuredPassengers.length; passenger++) {\n                if(passengers[flights[flightKey].insuredPassengers[passenger]].passengerOnFlight[flightKey]) {\n                    payableAmount = passengers[flights[flightKey].insuredPassengers[passenger]].insuranceAmountForFlight[flightKey];\n                    passengers[flights[flightKey].insuredPassengers[passenger]].insuranceAmountForFlight[flightKey] = 0;\n                    _contractBalance = _contractBalance.add(payableAmount);\n                    _insuranceBalance = _insuranceBalance.sub(payableAmount);\n                }\n            }\n            flights[flightKey].insuredPassengers.length = 0;\n        }\n        _removeFlightFromCurrentFlights(flightKey);\n    }\n\n    function payoutFunds(address payable payee) external payable requireIsOperational requireIsCallerAuthorized {\n        require(passengers[payee].balance > 0, \"Must have funds to get paid\");\n        uint256 balanceOwed = passengers[payee].balance;\n        passengers[payee].balance = 0;\n        payee.transfer(balanceOwed);\n    }\n}",
  "sourcePath": "/home/khalil/BlockchainProjects/project4/test1/FlightSurety/contracts/FlightSuretyData.sol",
  "compiler": {
    "name": "solc",
    "version": "0.5.17+commit.d19bba13.Emscripten.clang"
  },
  "schemaVersion": "3.3.3",
  "updatedAt": "2020-12-29T01:26:03.242Z",
  "networkType": "ethereum",
  "devdoc": {
    "methods": {
      "setOperatingStatus(bool)": {
        "details": "Sets contract operations on/off    * When operational mode is disabled, all write transactions except for this one will fail"
      }
    }
  },
  "userdoc": {
    "methods": {
      "isAirline(address)": {
        "notice": "*****************************************************************************************"
      },
      "isOperational()": {
        "notice": "*****************************************************************************************"
      }
    }
  }
}